:0700CE00D2AFD2A8D28822B4
:0700D500D2AFD2AAD28A22A9
:0B00C3001200CE1200D575A0FF80FED9
:03000300020016E2
:10001600C0E0C0F0C083C082C0D075D000C000C0B0
:1000260001C002C003C004C005C006C0077F147E1D
:10003600001200AE30B2FD7F147E001200AE75A035
:1000460000D007D006D005D004D003D002D001D00E
:0C00560000D0D0D082D083D0F0D0E032B7
:0300130002006286
:10006200C0E0C0F0C083C082C0D075D000C000C064
:1000720001C002C003C004C005C006C0077F147ED1
:10008200001200AE30B3FD7F147E001200AE75A0E8
:10009200FFD007D006D005D004D003D002D001D0C3
:0C00A20000D0D0D082D083D0F0D0E0326B
:1000AE00EF1FAC0670011E4C600A7D027CC7DCFEA1
:0400BE00DDFC80ECF9
:0100C200221B
:03000000020006F5
:0C000600787FE4F6D8FD7581070200C386
:00000001FF
