:030000000200C833
:0C00C800787FE4F6D8FD7581080200DFA7
:1000B800C0F9A4B0999282F880908883C6A1868EF0
:0B00D40075A07FEF9000B893F580222C
:100003007590F0AF905308F075900F8590085308E2
:100013000FE5084207EF120092008C77007C7B000B
:100023006C7D005C7E0088B70078BB0068BD00581B
:10003300BE0084D70074DB0064DD0054DE0080E77B
:100043000070EB0060ED0050EE000000917F038034
:100053003A7F0280367F018032E4FF802E7F078063
:100063002A7F0680267F0580227F04801E7F0B80E7
:100073001A7F0A80167F0980127F08800E7F0F8007
:0E0083000A7F0E80067F0D80027F0C1200D4D3
:01009100224C
:0500DF0012000380FB8C
:10009200D083D082F8E4937012740193700DA3A3FD
:1000A20093F8740193F5828883E473740293686011
:0600B200EFA3A3A380DF11
:00000001FF
