:0300000002001EDD
:0C001E00787FE4F6D8FD75810E020065C5
:0A01B7003F065B4F666D7D077F6F0A
:0901AD00010E0001090001080027
:0801C1007F087E28DEFEDFFC52
:0101C9002213
:10019B00D2AF758901758ACD758CF8C28DD2A9D273
:0201AB008C22A4
:10018400D2AF53890F438910D2BBE4F58B758D4CE4
:07019400C28FD2ABD28E2214
:05000600D288D2A822FF
:05000E00D28AD2AA22F3
:1000FE00750B14E4F50A12000612000E12019B1283
:10010E000184E50E64017004F50E80E4E5096401D6
:10011E0070F0F509208E04D28E80E7308EE4C28E08
:02012E0080E06F
:03000B000200AA46
:0A00AA00C0E0C0F0C083C082C0D0E7
:1000B400E50A75F00A84F50CE50A75F00A8485F002
:1000C4000D758ACD758CF8758000E50814600F04F1
:1000D400701DD2A4D2A3D2A20508E50C800BD2A431
:0F00E400D2A3C2A2750800E50D9001B793F58075
:0B00F300D0D0D082D083D0F0D0E0321B
:03001B00020130AF
:10013000C0E0E50B6004150B8015C28F758B007550
:100140008D4C750B14050AE50A64647002F50AD03B
:02015000E0329B
:03000300020152A5
:10015200C0D075D000C006C0071201C120B203751D
:090162000E01D007D006D0D03206
:0300130002016B7C
:10016B00C0D075D000C006C0071201C120B3037503
:09017B000901D007D006D0D032F2
:10002A000200FEE493A3F8E493A34003F68001F2EE
:10003A0008DFF48029E493A3F85407240CC8C333D7
:10004A00C4540F4420C8834004F456800146F6DFA6
:10005A00E4800B01020408102040809001ADE47E88
:10006A00019360BCA3FF543F30E509541FFEE4939B
:10007A00A360010ECF54C025E060A840B8E493A362
:10008A00FAE493A3F8E493A3C8C582C8CAC583CA8D
:10009A00F0A3C8C582C8CAC583CADFE9DEE780BE45
:0101B6000048
:00000001FF
